:020000040800F2
:10000000000001201D0E000800000000B12C0008B7
:1000100000000000C12C0008D12C000800000000E6
:10002000000000000000000000000000311800087F
:10003000000000000000000049180008E12C000842
:1000400000000000000000000000000000000000B0
:100050000000000000000000652400089124000852
:100060000000000000000000000000000000000090
:100070000000000000000000000000000000000080
:100080000000000000000000000000000000000070
:10009000000000000000000000000000BD24000877
:1000A0000000000000000000000000000000000050
:1000B00000000000000000000000000059280008B7
:1000C000852900080000000000000000B9100008A9
:1000D0000000000015210008D12100089D22000821
:1000E00029250008000000000000000000000000BA
:1000F00000000000000000002916000800000000B9
:1001000000000000000000000000000000000000EF
:1001100000000000000000000000000000000000DF
:1001200000000000000000000D1F0008000000009B
:10013000D0400B1CD1409C46203AD3401843524239
:1001400063469340184370479140031C90409C467F
:10015000203A9340194352426346D34019437047B3
:10016000704701200A2100F07BB8704710B50024C9
:1001700001344FF47A7000F021F82146094800F06C
:100180003FFE012000F01CF8012000F00DF8B0F552
:10019000FA6FC8BF28214FF00100D8BF002100F03E
:1001A00049F8E5E7583500080138C0B2072808B516
:1001B00002D800F08FF808BD002008BD01F09CBDFA
:1001C00003461A289FBF074A52F820209068064A23
:1001D0009FBFD35C03F00F03D84000F0010088BF3D
:1001E000002070478C310008F83100081A2810B53B
:1001F0000CD8074B53F82040064B1A5C012302F041
:100200000F02934009B1236110BD636110BD00BFAF
:100210008C310008F8310008054B188880B283073C
:100220005ABF80F00800C0F3C0000120704700BF33
:100230008005002038B505460C46FFF7EDFF68B194
:1002400014F17F0103D4FF29A8BFFF2100E00021A2
:100250002846BDE83840C9B200F034BA38BD0000C5
:100260001A2803460A4606D8034951F820000349D4
:10027000C95C00F0BBB870478C310008F831000849
:1002800010B589000368C9B20F248C4023EA040327
:100290008A401A43026010BD10B572B60A4B0B4972
:1002A0001A680B4C01321A608A68206842F0010219
:1002B00042F4A00240F0010020608A601A68013A0E
:1002C0001A6002B962B610BDC000002000240140CF
:1002D00008000240024B00F00F0033F81000704796
:1002E000120500200FB47FB508994B1E0F2B2CD898
:1002F00072B6184D1B052A68019301322A60164A0E
:10030000002302930393516009AA009202EB81003B
:1003100003AC52F8041B266801F01F019940053315
:100320001D2B41EA0601216084BF0023043C824268
:10033000EFD10A4B019ADA62029A1A63039A5A635E
:100340002B68013B2B6003B962B604B0BDE8704076
:1003500004B07047C00000200800024000240140A3
:100360002DE9F84307460E46914602F00D0872B695
:100370001D4D00242B6801332B60F2070FD5384642
:10038000E1B24246FFF77CFFB8F1080F07D1012325
:1003900019F0020F03FA04F314BF3B617B610134CF
:1003A000082C4FEA5606E8D1F30711D5A4F108014D
:1003B000381DC9B24246FFF763FFB8F1080F07D1F5
:1003C000012319F0020F03FA04F314BF3B617B61B0
:1003D0000134102C4FEA5606E6D12B68013B2B6006
:1003E00003B962B6BDE8F883C00000202DE9F041F2
:1003F0000646174672B6134D01F00F04072C2B6802
:1004000088BFA4F1080102F00D0803F1010386BFC3
:100410000430C9B221465FFA88F22B60FFF730FF43
:10042000B8F1080F07D1012317F0020F03FA04F304
:1004300014BF336173612B68013B2B6003B962B653
:10044000BDE8F081C000002070B5244C20F003000E
:10045000011D206800220346154693B11E688E4296
:1004600005D15A680DB16A601EE022601CE005D912
:100470001AB1B24228BF324600E032461D465B68E0
:10048000EBE7D2B1551A072D98BF114601E003469C
:10049000406890B105689542F9D1914206D0521A50
:1004A00081508318043A0260181D70BD42680BB178
:1004B0005A6000E02260043070BD094A094B1068A0
:1004C000984208D21B1A8B4205D30B1D03441360BC
:1004D00040F8041B70BD002070BD00BF000000206C
:1004E0003405002000FF0020F0B500284FD0284B35
:1004F00000241A68011F04601E464AB950F8042CF3
:100500001044244A146884420CBF11601960F0BD85
:1005100013468B4215D31D4650F8047C056000EB52
:10052000070EAE4508BFC559234601BFED19043576
:1005300040F8045CDEF8045008BF056034B931604F
:10054000F0BD5D681C460DB12B46E2E71C4654F831
:10055000045B59602C44A14201BF50F8041C4919A6
:100560000431196004BF016859600021506810B15E
:1005700011460246FAE71368141D1C44054B1D681A
:10058000A54204D109B9316000E048601A60F0BDAD
:10059000000000203405002010B572B6054C236819
:1005A00001332360FFF7A0FF2368013B236003B9F9
:1005B00062B610BDC000002010B572B6054C2368AD
:1005C00001332360FFF740FF2368013B236003B939
:1005D00062B610BDC0000020134B144A1B780020E7
:1005E000DBB2802B124908D99086803B10204861ED
:1005F0009BB208200861138710E07E2B9FBF1087F5
:10060000C3F17F030820486199BF9BB210201823D3
:10061000908695BF0861108793864B6146F6680205
:10062000024B1A83704700BF0400002000080040FE
:1006300000140140164B174A5B780020DBB2802B78
:1006400015490AD99087803B4FF4807048619BB26E
:1006500080200861A2F8403014E07E2B9FBFA2F8F2
:100660004000C3F17F038020486199BF9BB24FF4E3
:1006700080704FF4C073908795BF0861A2F8400066
:1006800093874B6146F66802024B9A83704700BF1E
:1006900004000020000800400014014038B5084B59
:1006A0005D881C46ADB215F0010F01D0FFF794FF35
:1006B000AB0701D5FFF7BEFF0023638038BD00BF45
:1006C00004000020013810B537D172B6414C424ABF
:1006D00023680133236013785088DBB210F0010FD8
:1006E0001170104665D10A0602D57E2B04D921E08F
:1006F0007F291FD019061DD5384B00229A861A87EC
:10070000374A1821516144F648021A8303F596339B
:100710009A8C02F5B47292B21A8741F6FB621A8281
:100720009A8992B242F004029A8143889BB243F0C4
:1007300001033AE0FFF750FF3BE009283FD172B6D2
:10074000244C254A23680133236053785088DBB258
:1007500010F0020F517010462BD10A0602D57E2BE5
:1007600004D924E07F2922D01B0620D51B4B002270
:100770009A87A3F840201A4A4FF4C071516144F699
:1007800048029A8303F596339A8C02F5B47292B2BA
:100790001A8741F6FB621A829A8992B242F00402E9
:1007A0009A8143889BB243F00203438001E0FFF744
:1007B00041FF2368013B236053B962B610BD08288E
:1007C0009FBF00F1FF30074BC0B2C01898BF8171C6
:1007D00010BD00BFC0000020040000200008004041
:1007E000001401404005002072B6104A4FF4CC714D
:1007F00013687F20013313600D4B59610D490023AD
:100800008B860B878B87A1F840300B4948700870A6
:100810004B800A497F2019440133082B8871F8D195
:100820001368013B136003B962B67047C000002033
:100830000014014000080040040000204005002092
:100840002DE9F04188460746154606991C468BB1AE
:100850002AB1531B12F8010B0028FAD100E013460D
:10086000A34234BFE41A002411F0020F0CBF20266B
:10087000302600E02026CB0705D424B1404631467F
:10088000B847013CF9E7013D15F8011F19B1404691
:1008900049B2B847F8E724B140463146B847013C71
:1008A000F9E7BDE8F0812DE9F04186B00D9D0F46D6
:1008B000690780460C9E04D5002ABCBF45F0100590
:1008C000524206AC002104F8011DB2FBF3F003FB19
:1008D000102109298CBF37313031024604F8011D3F
:1008E0000028F2D1EA06234608D526B1A80702D58A
:1008F00038462D2109E0013C2D220BE029070BD5BC
:1009000036B1AA0704D538462B21C047013E03E083
:10091000013C2B2203F8012C009540463946224623
:100920003346FFF78DFF06B0BDE8F0810000000000
:100930002DE9F04F1F46DBB0659B002A0593669BAF
:10094000054608933B4673F1000388461646649CAF
:1009500002DA08462D2104E0089B1B0703D5084650
:100960002B21A847013C4FF0FF3216403246AC4BDA
:100970003B401B0DA3F2FF3A0493AA4BBAF5806FDC
:1009800007EA030747F48013CDE900230AD1089B47
:100990002846649341462346A34A5BB0BDE8F04F26
:1009A000FFF74EBF059BE41A631EB3F59A7F88BF1D
:1009B000002303933F2412AB002223F81420013CB0
:1009C000F9D19245ADF84840C0F29080BAF1340FA9
:1009D00008DCDDE90001CAF13402FFF7A9FB274674
:1009E000264617E0049BA3F233494FEA1916A9EBF8
:1009F0000619B9F10B0F07D901982146C9F1200258
:100A0000FFF796FB074600E02746DDE900014A466E
:100A1000FFF79AFB3246331D9A420DF1480E07D27A
:100A20002EF81200000C40EA01400132090CF3E7F5
:100A300017B12EF81270731D4FF000091E460022E8
:100A4000013B12A830F8131001EB024142F2107280
:100A5000B1FBF2F21AB9771EBB4208BF3E4620F83E
:100A6000132042F2107000FB1212002BE8D109F1A2
:100A70000101099132A921F819203346DDF82490AB
:100A8000002EDBD14FEA49030A930A9B5AAAA3EB33
:100A90004603134433F8A2BC6427BBFBF7F7634A51
:100AA00052F8272016B9092F40F29F8092F90010C2
:100AB00040460B92A8470B9A002E00F0968092F9C0
:100AC00001104046A847642202FB17B7574B53F862
:100AD0002770404697F90010A847404697F9011043
:100AE000A847099B01369E42CFD104E04046302101
:100AF000A8474FF001090AF14B037E2B10D8DDE91E
:100B000000011AF10C0F049B04DBA3F2F332FFF790
:100B10001BFB07E0C3F57C720332FFF709FB01E022
:100B2000002000214FF0340E002600273AA3D3E91D
:100B3000002350EA010C0DD0002871F1000C01DAFD
:100B4000B6185F415B084FEA320200184941BEF116
:100B5000010EEED140462E21A847059BC3F10F039D
:100B60009C4203D116F5FA7647F10007330F0A20AD
:100B700043EA0713B3FBF0F200FB123326F0704197
:100B800041EA0373B3FBF0F11309079313070693CC
:100B9000DDE9062342EA0102303602EB82000DA9AC
:100BA000A6EB400666540134122C02D016461F46AE
:100BB000D3E7059B0DF14606C3F112040C44A6428F
:100BC00004D0404616F9011DA847F8E7089B13F02A
:100BD000020F14BF30242024039B994518D24046AD
:100BE0002146A84709F10109F6E7104B37B9BBF1D7
:100BF000090F53F82B703FF66CAF6EE792F90110B6
:100C000040460B93A847642202FB17B70B9B5EE795
:100C10005BB0BDE8F08F00BF0000B2D3595BF006B7
:100C20000000F07FFFFF0F00763500081C3200083F
:100C30002DE9FF410746884615461C4629780029BC
:100C400000F0AB8049B2252940F0A38069786E1C82
:100C5000002900F0A28049B2252903D14046B847B7
:100C6000354698E02D2908BFAE1C96F900300CBF20
:100C7000012100212B2B08BF013696F9003008BF57
:100C800041F00801302B04BF013641F0020106207B
:100C90000023327835464FFA82FEBEF12E0F06F160
:100CA000010603D141F020010020F2E7303A092A81
:100CB0000CD811F0200F4FF00A0215BF02FB00E222
:100CC00002FB03E3A2F13000303BE2E7BEF16C0F20
:100CD00008BF354695F90020662A44D00EDC582A14
:100CE00032D002DC002A56D04CE0632A34D0642A89
:100CF00048D1261D009341F004011DE0732A0DD058
:100D000007DC702A3ED10823261D009341F0020122
:100D10001CE0752A0ED0782A16D033E02268261DF2
:100D2000214C009138464146002A08BF2246FFF771
:100D300087FD16E0261D0093019138464146226842
:100D40000A23FFF7B0FD0CE0261D00930191384601
:100D5000414622681023F4E7404694F90010261D0E
:100D6000B847344617E0073424F007060190029193
:100D700000933846D6E90023414606F10804FFF700
:100D8000D7FD08E040462521B847404695F90010B8
:100D900000E04046B847013550E740463B46002159
:100DA00004B0BDE8F04118477A35000810B5044694
:100DB00031B10846216801F06BF963680133636063
:100DC00010BD38B504460D4614F8010B20B1294674
:100DD00040B201F05DF9F7E738BD0321FFF7F1BF3D
:100DE00013B50C4613460022009001920348694651
:100DF0002246FFF71DFF019802B010BDAD0D00089F
:100E00000FB407B504AA52F8041B03200192FFF7A0
:100E1000E7FF03B05DF804EB04B070470B4A0C4BDE
:100E20000C4903E052F8040B43F8040B8B42F9D34E
:100E3000094B0A4A4FF0000101E043F8041B9342BA
:100E4000FBD307480749086001F08EBFF43700085C
:100E5000000000200000002000000020040F0020FF
:100E6000080F00203405002070B53F4A3F4D91899E
:100E700028783F4A431C89B222F81010DBB23D4863
:100E800001210F2B2B701646016111D813F0030FAF
:100E9000394B9A8C14BF0832493292B29A8641F685
:100EA000FD621A829A8992B242F002029A8170BD62
:100EB0004CF6171013889BB2834251D19378DBB262
:100EC00003F0020202F0FF04DAB113F001032B4A2F
:100ED0000BD00323937000235371D11801337F206B
:100EE000082B8871F9D1002438E002219170552136
:100EF00051712349585CD1180133082B8871F8D1FE
:100F0000F1E7580703D51D4B08229A7026E0082BFD
:100F1000E9D11A4A9370F378DBB21A0709D513F0B6
:100F2000400F0CBF09240D241B0603D444F0020417
:100F300000E00C466B889BB29C4203D00B4B5C805C
:100F400001F00AFE3379202BAB8803D83F2B05D85C
:100F5000013301E013B1013B044A9380094B1C802B
:100F600000232B7070BD00BF00300140080000203E
:100F700060050020001801400034014040050020B9
:100F80003805002080050020084B1B78042B02BF89
:100F9000074A4FF400615161064A01215161064A36
:100FA00032F81330054A9BB2938170470800002045
:100FB00000080140001801404005002000300140B9
:100FC000294B01221A61294A0023937108232849D9
:100FD000013B13F0FF038989F9D1234B9968090775
:100FE00002D530BF00BFF8E79B6813F01003F8D1BB
:100FF000204993800B801370538001211E4A0023E7
:1010000022F8113001311029F8D14CF61711118056
:10101000022191700121D37082F82010D118013380
:101020007F20082B8871F9D10022144B7F2099185A
:101030000132062A88718874F7D100225A739A7394
:101040005A769A760E4B50221A7052225A704F22BC
:101050009A705322DA7020221A715A719A71DA71D9
:10106000034B40229A80704700180140080000207E
:101070000030014080050020400500206005002070
:101080003805002008B5094B1B88DB0702D430BFA8
:1010900000BFF8E7322001F03DFE0548FFF79DFE56
:1010A000BDE808400348FFF798BE00BF8005002058
:1010B000AB360008EE360008684620F007018D4682
:1010C000054B01B51B89DB0701D5FFF7CDFEBDE858
:1010D00001408546704700BF00300140144B9A889C
:1010E000202A03D81B7812494BB11EE00022114977
:1010F0007F2011440132082A8871F8D1F2E78A79F9
:10110000531C8B710B4B83F821200B4A11898907E3
:101110000DD50A494FF400600861012001F58051A6
:1011200048611B889BB293817047FFF79DBE704753
:101130000800002040050020003001400008014068
:101140002DE9F041BD4C4FF41F03A360BC4B0022BE
:101150001A61236886B023F4802343F4803323602C
:10116000636823F0030363602368B44A9803FBD5E4
:10117000B4490B6823F0030343F012030B60B24B36
:101180005360136843F0807313602368AB4A99017E
:10119000FBD5536843F0020353606768A74D07F01F
:1011A0000C07082FF9D1A94B00261E60AB6943F04C
:1011B0007D03AB61EB6843F07D02EA60BFF34F8FC4
:1011C000A348EB6032461F21FFF7CAF8A0484FF44E
:1011D00028710922FFF7C4F89D480A210422FFF76D
:1011E00005F9DFF890829A480B210122FFF7FEF8FB
:1011F00097484FF240110A22FFF7B2F840463946AD
:101200000122FFF7F3F8404609210122FFF7EEF82B
:101210004FF48073C8F810304FF40073C8F81030E2
:1012200040464FF6FF410A22FFF79AF832468948B6
:101230000F21FFF795F887480A210922FFF7D6F812
:1012400084480B210422FFF7D1F83A4681484FF435
:101250006041FFF785F87F4841F2F0310A22FFF73D
:101260007FF8FFF7C1FA7C4805210922FFF7BEF895
:10127000794806210422FFF7B9F877484FF4CC717A
:101280000122FFF76DF874484FF470410922FFF70F
:1012900067F8714840F607610A22FFF761F86F4866
:1012A00061210122FFF75CF86C484FF69E710A221B
:1012B000FFF756F841F2DA02694B33215A60694A66
:1012C000DE611660566099604FF40851D96044F2AF
:1012D0004441196140F244415961634BD6609660C4
:1012E0005361AB6943F48053AB61EB6843F48052C4
:1012F000EA60BFF34F8F40F66532EB605B4B1A80BC
:101300009E8001F085F8AB6943F48043AB61EB69E3
:1013100043F4C023EB61EB6843F48042EA60BFF31F
:101320004F8FEB602B6943F4C0222A61BFF34F8FCC
:1013300040F239122B614E4B9E81A3F80C6403F5E9
:1013400074431A8142F22C029A8101F051FAEB693E
:1013500043F40013EB612B6943F400122A61BFF3DD
:101360004F8F2B61A5F5DE354FF400432B802026EF
:10137000013EFDD14FF492732E80AB8048F25A03A8
:101380000A27AB832F842B8810209BB243F4806301
:1013900043F001032B8001F039FAAB89354823F083
:1013A00001031B041B0CAB8108210D22FFF71EF863
:1013B000304809210D22FFF719F8E36943F01C03B7
:1013C000E361A36943F42053A361236943F01C0242
:1013D0002261BFF34F8F2361E36843F42052E26040
:1013E000BFF34F8FE360244B6E229A854FF4207237
:1013F0001A8546F6680143F233324FF6FF701983BF
:10140000372599831A8401221A80A3F82C04A3F8A3
:101410002864A3F80854A3F80C244725A3F8002453
:1014200003F5963398851D8520259D801A80A3F5A8
:101430000063988540F2C11020E000BF0010024018
:1014400000ED00E00020024000841D008405002023
:101450000008014000100140001401400018014044
:101460000000014000040140FFFF07000030014080
:1014700000440040000C0140000800401A85198318
:1014800099834FF401411E84A3F8441081211980EF
:10149000A3F58E330321198598858020188042F2A8
:1014A000A0509D8063690B436361524B18605248A2
:1014B00098605248D86042F2B650C3F828045048A9
:1014C000C3F83004A36943F40073A361E36843F4F1
:1014D0000070E060BFF34F8F4A4DE3604FF48073BC
:1014E0006B60494B0820AB600C2301930D230293E2
:1014F0000B2300910493039702233146FEF7F2FE7B
:10150000424BEB6003F134532B61414BAB6008332A
:10151000AB60AB681B07FCD43E4A3A4B9A60AE689E
:1015200016F00406FBD1FEF7B7FEE36943F0005363
:10153000E361236943F000522261BFF34F8F41F210
:1015400007022361344B20201A60344A4FF00063B5
:101550009360334BD024D360E02382F82230314BA8
:101560004FF48041D477402783F82E035960C0217F
:1015700083F825138025586083F826135F6083F86D
:101580002713B0215D6083F82313082159603021AF
:1015900083F806131F6083F807131D604FF40005DE
:1015A00083F817131D604FF4807583F828135D606E
:1015B00083F81F034FF000401860012083F82013C8
:1015C000586083F83A134FF08061596042F2273136
:1015D00043F8EC1C032182F8234043F8E86C43F8FD
:1015E000F01C4FF4C023536262B661B606B0BDE88A
:1015F000F08100BF080002404C2401401205002089
:10160000087400400024014002010E006DDBB600AA
:1016100003010E0007010E000074004000ED00E021
:101620000003FA0500E100E0684620F007018D465E
:10163000164A19B5148A93899BB21C40A00707D596
:10164000938923F002031B041B0C9381FFF79CFC7E
:10165000610708D50D4A938923F004031B041B0C72
:101660009381FFF71BF8220708D5084A938923F0D6
:1016700008031B041B0C938101F0D6F8E30601D587
:1016800000F006FCBDE81940854670470034014073
:10169000014B1868704700BF84050020084A0949BB
:1016A000938C888C928C9BB292B29A4280B204D076
:1016B00047F6FE71884298BF134640EA03407047E0
:1016C000000C00400034014003480068006880F3CB
:1016D000088862B600DF00BF08ED00E00146064A58
:1016E000C36A10680431834288BF1360034A142020
:1016F00000FB032001F064BB100000201400002058
:1017000038B50546074CE16F41F8040F04F180003D
:1017100001F063FBD4F894309D4238BFC4F8945074
:1017200038BD00BF1000002070B50026224CD4F850
:10173000983043B3D4F89C301BB372B6D4F8B030B1
:101740000133C4F8B030D4F8A830DD68281D01F0AA
:101750005CFBD4F8B430013BC4F8B430D4F8983012
:10176000013BC4F89830D4F8B030013BC4F8B03035
:1017700003B962B6286BFEF70FFF2846FEF70CFF91
:1017800001E0C4F89830FFF783FFB042054607D365
:10179000002000F0E9FD012000F0E6FD05F1100653
:1017A0006368012B05D9054A536843F080535360A1
:1017B000BCE730BF00BFB9E71000002000ED00E03B
:1017C000184A10B5D2F8B810134611F0020F03D022
:1017D000012382F8BC3010BDCA0722D51A68142034
:1017E000504319180C1D496809B9013AF7E76168B7
:1017F0000D4C4968204481424FF0140000FB023038
:1018000008BF49688160C9681A60D9670B6B0A68AC
:101810009A4203D91A68054B9A4202D0032001F07C
:101820000DFA10BD100000201C0000202F46AA71E8
:10183000044B19680868B0E8F00F80F309884EF08F
:101840000D0E70478C000020EFF30980094B1A68D9
:1018500020E9F00F10602DE9084072B6FFF7B0FFE5
:1018600062B6BDE8084019680868B0E8F00F80F378
:10187000098870478C00002070B51E4CD4F8B83031
:10188000012B35D172B6D4F8B0300133C4F8B03082
:10189000FFF7FEFED4F89430064698421CD3D4F8E5
:1018A0008020144B12B94FF0FF3205E0D3F88C20A2
:1018B000D5686A68964202D2C3F894200CE0281DCD
:1018C00001F0A3FAAB6A1BB105F1180001F09DFA13
:1018D0002846FFF703FFE2E7D4F8B030013BC4F835
:1018E000B03003B962B6044A536843F08053536082
:1018F00070BD00BF1000002000ED00E0064BD3F8E3
:10190000B830012B05D1054A536843F0805353602A
:10191000704730BF00BF70471000002000ED00E0AE
:101920002DE9F0474C4D9A46D5F8B4308146102B3E
:101930000F46904600F28D803820FEF73DFE0446AB
:10194000002800F08680BF003846FEF735FE18B943
:101950002046FEF721FE7CE0BAF1050F3F4B28BF81
:101960004FF0050A043F03602063C619C4F82CA099
:10197000201DC4F834A001F020FA04F1180001F091
:101980001CFACAF10603A36126F007064FF0807324
:101990002461646246F8043C314B46F8089C46F8E2
:1019A0000C3C46F8208C403E266072B6D5F8B0302C
:1019B000EE6F0133C5F8B030D5F8B4300133C5F857
:1019C000B430E6B9D5F8B430EC67012B1FD1254F00
:1019D000B819143601F0E6F9782EF8D107F17C0039
:1019E00001F0E0F907F1BC0001F0DCF907F1980023
:1019F00001F0D8F907F1D00001F0D4F907E0D5F8EB
:101A0000B830DA0703D4F36A534598BFEC67D5F8CA
:101A1000E83020469A4584BF0F4BC3F8E8A0FFF793
:101A20005DFED5F8B030013BC5F8B03003B962B601
:101A3000D5F8B830DB0709D5074BDB6FDB6A5345B8
:101A40003FBF094A536843F0805353602046BDE8C6
:101A5000F0870020BDE8F087100000202F46AA7113
:101A6000E11A00081400002000ED00E070B5054602
:101A700072B6184CD4F8B0300133C4F8B03000B9A5
:101A8000E56F2E1D304601F0C0F9AB6A1BB105F1C0
:101A9000180001F0BAF91048314601F091F9D4F874
:101AA00098300133C4F89830D4F8B030013BC4F812
:101AB000B03003B962B6D4F8B830DB0708D5054BAF
:101AC000DB6F9D4201BF054A536843F0805353606A
:101AD00070BD00BF10000020AC00002000ED00E051
:101AE0000020FFF7C3BF0000F8B5054672B61C4CD6
:101AF000D4F8B0300133C4F8B03008B9E66F00E074
:101B00000646371D384601F080F9B36A1BB106F16D
:101B1000180001F07AF91348394601F051F9D4F868
:101B2000B030013BC4F8B03003B962B6B5B9D4F8EF
:101B3000B8200B4BD20705D50B4A536843F08053AE
:101B40005360F8BDD3F8D410D3F8B420914201D13A
:101B5000DD67F8BDBDE8F840FFF732BEF8BD00BF55
:101B600010000020E400002000ED00E070B5054604
:101B700072B6154CD4F8B0300133C4F8B030C8B1E7
:101B8000D4F8B8309B0707D504F1C00005F118015F
:101B900001F016F900260EE0E36F0430DE6A836A76
:101BA000B34234BF0026012601F02FF92846FFF783
:101BB00095FD00E00646D4F8B030013BC4F8B030E3
:101BC00003B962B6304670BD10000020002208B58F
:101BD0000C4840211346FFF7A3FE88B172B60A4BAA
:101BE0004FF0FF32C3F8942001210022C3F898205F
:101BF000C3F8B810C3F8B020BDE80840FFF764BDD3
:101C000008BD00BF2917000810000020034AD2F8C1
:101C1000B83043F00203C2F8B8307047100000201B
:101C2000F8B572B6214BD3F8B0201D460132C3F887
:101C3000B020D3F8B82022F00202C3F8B820D3F8BD
:101C4000B4200AB9002427E00024D5F8C030174F8B
:101C50009BB1D7F8CC30DE6806F1180001F0D5F85A
:101C6000301D01F0D2F83046FFF738FDFB6FF26A05
:101C7000DB6A9A4228BF0124E7E7FFF7FDFD1CB9A4
:101C800097F8BC30002BDDD00023094A85F8BC3022
:101C9000536843F080535360D5F8B030013BC5F82A
:101CA000B03003B962B62046F8BD00BF1000002076
:101CB00000ED00E038B505460C46FFF7A7FF2B689E
:101CC0001C44FFF7E5FC84422C6007D9084BD86F11
:101CD000043001F09AF82046FFF712FDFFF7A0FF4D
:101CE00020B9044A536843F08053536038BD00BFA5
:101CF0001000002000ED00E010B5044628B90C4AA1
:101D0000536843F08053536010BDFFF77FFFFFF728
:101D1000BFFC084B0444D86F043001F076F820462D
:101D2000FFF7EEFCFFF77CFF0028E8D010BD00BFF6
:101D300000ED00E01000002038B50D460C4CE16FBE
:101D4000183101F04AF8E06F043001F05EF86B1CC6
:101D500007D1E16F04F1D4000431BDE8384001F04F
:101D60002FB8FFF795FC2844BDE83840FFF7C8BC02
:101D700010000020C36870B5DD680F4C05F118062F
:101D8000304601F042F8D4F8B8309B0705D504F18D
:101D9000C000314601F014F805E0281D01F035F8C7
:101DA0002846FFF79BFCE36FE86ADB6A984234BF82
:101DB0000020012070BD00BF10000020014BD86F33
:101DC000704700BF1000002038B50446E8B10F4D41
:101DD000C36AEA6FD16A8B4217D2D16AC1F1060198
:101DE0008161291D142000FB0313616999420AD106
:101DF000201D01F00AF8EB6F2046DB6AE362BDE8C4
:101E00003840FFF76BBCD36AE36238BD1000002096
:101E100010B5044680B1C26A436B9A420CD00430BC
:101E200000F0F3FF636B2046E362C3F10603A36196
:101E3000BDE81040FFF752BC10BD000010B5114ABC
:101E4000030104464FF0FF30D118D050C87901216A
:101E50000130C0B2FEF7CAF90B490B7803F0FD035D
:101E60000B700A4B9A8C803292B2A3F8402041F654
:101E7000EF621A829A8992B242F010029A814C70F3
:101E800010BD00BF88050020FC0000200034014088
:101E900070B51B4E74783578E3B2EDB2EA0727D5FA
:101EA000184A05F002001C0100F0FF01144420B1A3
:101EB000A079BDE87040FFF7C1BFE07945F00205A9
:101EC0000130C0B2FEF792F9FFF7E8FB0E4BE0607D
:101ED00035709A8CA2F5804292B2A3F8402041F668
:101EE000EF621A829A8992B242F010029A8170BD12
:101EF000054A938923F010031B041B0C938170BDCA
:101F0000FC0000208805002000340140684620F0D5
:101F100007018D462DE9F14F424A434C13684FF4B7
:101F20008071516013F4007384B004EB01000193DD
:101F3000B4F80012B4F80282B4F80822B4F80AC265
:101F4000B4F8103208BF204689B292B29BB21D4647
:101F500016460F46B4F812E21FFA88F81FFA8CFCF6
:101F60001FFA8EFE00F5807A4744304CBFB24FEA2C
:101F70005729664404EB4909B6B2B9F998B04FEA5B
:101F8000562904EB4909B9F998907544ADB2D94482
:101F90004FEA552B04EB4B04B4F99840A14409F1E6
:101FA00004094FEAE90909F2FF7920F8029B50453C
:101FB000DAD11D4801EBC81102EBCC1203EBCE13B2
:101FC0009BB289B292B2A0F80012A0F80822A0F841
:101FD0001032019B0BB3B0F8043204A9013B9BB251
:101FE000A0F80432B0F80C32013B9BB2A0F80C32DE
:101FF000B0F81432013B9BB2A0F81432002301F870
:10200000013DD0F8180200F020FF9DF80F3023B1F9
:10201000074A536843F08053536004B0BDE8F14F62
:10202000854670470004024000010020AC330008E0
:1020300000ED00E0154A242303FB012310F1560FA5
:102040005B8C15D0552802D1012B09D112E016283E
:1020500002D1022B04D10FE0022801D1032B0DD0B5
:10206000042B0DD1242303FB012383F8210007E077
:10207000012306E0022304E0032302E0042300E03E
:102080000023242000FB01214B8470471C03002007
:1020900070B54D1E022D04462CD8194E882303FB23
:1020A000056673783278013303F03F03934202D11F
:1020B000FFF724FCF5E7134A882303FB052292F877
:1020C000493002F14800DBB21A440133E1B203F0B7
:1020D0003F0382F84A1043700DB90B4A03E0012D0B
:1020E0000CBF0A4A0A4A938920469BB243F08003F8
:1020F000938170BD08462146BDE8704000F046BBA4
:10210000640300201C0300200044004000480040FD
:1021100000380140684620F007018D4601B50023D4
:1021200082B08DF80730274B1A8892061DD5998802
:10213000254B89B293F89B2193F89A01013202F062
:102140003F0282420BD093F89B21C9B2D2B29818B9
:10215000013202F03F0280F89C1183F89B21D3F8F2
:10216000DC010DF1070100F070FE164803881B0624
:102170001BD5154991F8582191F859319A4206D149
:10218000838923F080031B041B0C83810DE091F8ED
:102190005831DBB2CA1892F85A21013303F03F03D9
:1021A00081F8583153B29BB283809DF8073023B138
:1021B000064A536843F08053536002B0BDE80140C3
:1021C00085467047003801401C03002000ED00E008
:1021D000684620F007018D4601B52D4B82B01A8864
:1021E000002190068DF8071024D59888294BC0B29D
:1021F00093F82020520703D540B2FFF71BFF19E0E8
:1022000093F88B2093F88A10013202F03F028A4241
:102210000AD093F88B20D2B29918013202F03F0213
:1022200081F88C0083F88B20D3F8CC000DF10701E6
:1022300000F00BFE164803881B061BD5154991F8C4
:10224000482091F849309A4206D1838923F08003CF
:102250001B041B0C83810DE091F84830DBB2CA18D7
:1022600092F84A20013303F03F0381F8483053B21B
:102270009BB283809DF8073023B1074A536843F02F
:102280008053536002B0BDE801408546704700BFEF
:10229000004400401C03002000ED00E0684620F0F0
:1022A00007018D4601B5002382B08DF807302B4B16
:1022B0001A88910625D59888294BC0B293F84420F6
:1022C000520704D540B20121FFF7B4FE19E093F89C
:1022D000132193F81211013202F03F028A420AD010
:1022E00093F81321D2B29918013202F03F0281F81B
:1022F000140183F81321D3F854010DF1070100F004
:10230000A4FD164803881B061BD5154991F8D0205B
:1023100091F8D1309A4206D1838923F080031B04BF
:102320001B0C83810DE091F8D030DBB2CA1892F813
:10233000D220013303F03F0381F8D03053B29BB277
:1023400083809DF8073023B1064A536843F08053D9
:10235000536002B0BDE80140854670470048004028
:102360001C03002000ED00E0284A2DE9F041242361
:1023700003FB002393F82040610744D51E46E20783
:102380004CBF24F0010244F0010300F101054CBFF1
:1023900083F8202086F8203029464FF0AA0048BF55
:1023A0001036FFF775FE29465520FFF771FE2946C6
:1023B0001E20FFF76DFE04F0030429461220FFF7EC
:1023C00067FE20462946FFF763FE102796F8008037
:1023D000B8F1000F08D04FFA88F029464444FFF7BF
:1023E00057FEE4B2013605E020202946FFF750FEF3
:1023F0002034E4B2013FE9D160422946BDE8F04112
:1024000040B2FFF745BEBDE8F08100BF1C030020CD
:1024100038B5134C002584F89A5184F89B5184F800
:10242000585184F89B5100F005FD84F88A50C4F897
:10243000DC0184F88B5084F8485084F88B5000F00D
:10244000F9FC84F81251C4F8CC0084F8135184F8D4
:10245000D05084F8135100F0EDFCC4F8540138BD9D
:102460001C030020684620F007018D46064B01B58D
:10247000D3F8A8300BB10B209847BDE80140034BBF
:1024800001225A61854670478805002000040140FA
:10249000684620F007018D46064B01B5D3F8B830E9
:1024A0000BB10C209847BDE80140034B02225A6152
:1024B000854670478805002000040140684620F0EA
:1024C00007018D4679B5164B5D691E4615F040042F
:1024D00005D0144B9B6A0BB1032098474024290672
:1024E00006D5104B9B6B0BB10420984744F0800439
:1024F000EA0506D50B4B9B6E0BB10720984744F4B9
:102500008074AB0506D5074B9B680BB1012098473B
:1025100044F400747461BDE879408546704700BF9B
:102520000004014088050020684620F007018D4620
:1025300079B51B4E756915F4806406D0194B9B6FF5
:102540000BB1082098474FF48064280506D5154B39
:102550009B690BB10220984744F40064E90407D555
:10256000104BD3F888300BB10920984744F48054BD
:10257000AA0406D50B4B9B6C0BB10520984744F47D
:1025800000546B0406D5074B9B6D0BB10620984792
:1025900044F480447461BDE879408546704700BFCB
:1025A0000004014088050020064B00F5803002221F
:1025B00040301A61C002422258611A61DA68D207BB
:1025C000FCD470470020024000F58030054B4030BD
:1025D00010B5C00201241C614252DA68D207FCD453
:1025E00010BD00BF002002402DE9F047A0F1050812
:1025F000B8F1030F59D82F4B0C2202FB0832B2F866
:102600008A001F4610F0020F49D0D2F88000B2F8BD
:10261000886000F11005EB0AD2F88490A5EBC32581
:10262000254A1E44254BC0EB09005A6002F188324E
:1026300020F001045A6007F1B00A1CB3A5B97F2E3F
:102640000CD90C2303FB0873C4EB090020F0010034
:10265000C3F88000194B80221A6126E0BB5D002B75
:10266000EFD1144B03229A55304629463AF8022BF3
:102670000235FFF7A9FFB5F5006F24BF013600252D
:10268000023CDAE70D4B80221A610C2303FB08732E
:1026900029F00100C3F880002046BDE8F08780F0F3
:1026A000010040F30000BDE8F0874FF0FF30BDE8C7
:1026B000F08700BF48060020230167450020024044
:1026C0002DE9F041074600244DF6DE6104F5803324
:1026D0004033DB021A885E688A42DFF8AC8032D170
:1026E000B6F5802F5A8808D24FF6FF739A4205D16B
:1026F000012308F80430032511E001261FB908253D
:1027000008F804500BE01E4B1E4A002508F8045040
:102710005A6002F188325A602046FFF745FF0F36B3
:1027200004EBD626B44209D0013415B92046FFF790
:102730003BFF802C08F80450F4D11EE07DB9104B0B
:1027400080221A610AE04FF6FF739A4203D10136E4
:1027500001D1002300E0082308F804302646741C49
:102760007F2CB1D90023A8F88A30A8F89630A8F8B1
:10277000A230A8F8AE30BDE8F081002DDFD0F1E73F
:102780000020024023016745480600202DE9F04162
:10279000461F032E0D4603D94FF0FF30BDE8F081F0
:1027A000124B0C2404FB0634B4F88A20984612F02D
:1027B000020FF1D0D4F88030D4F8847003F50062B1
:1027C000974205D3FFF710FF0028E5D1D4F88030F9
:1027D000FB1A434483F8B0500C2303FB06860137F1
:1027E000C6F884702846BDE8F08100BF4806002086
:1027F00010B500F01FFB0446002100F02BFB024B3C
:1028000000229C601A7010BDF80E0020054A00F0EE
:10281000FE00138923F0FE031B041B0C03431381EA
:10282000704700BF0054004007B5002302A901F81B
:10283000013D074B986800F008FB9DF8073023B175
:10284000044A536843F08053536003B05DF804FBBF
:10285000F80E002000ED00E0684620F007018D46EC
:10286000454B11B5998A1A8B89B2CA0703D5434AD9
:1028700052781A827BE08C0719D540494A884878FB
:10288000D2B2C00709D44868013A441C4C600078B1
:10289000D2B2188290B2488033E0012A67D11A88F8
:1028A00092B222F4C06242F400721A8052E00A0628
:1028B00030D532484C07428892B216D50278D2B24F
:1028C000510755BF1A8822F0060292B242F0020266
:1028D00056BF42F4007202701A80274A938823F48C
:1028E000C0631B041B0C938034E012F0FF023ED047
:1028F0004168013A4C1C44600978D2B2198291B205
:102900004180002A33D19A8822F480621204120C8A
:102910009A802CE04A062AD518494A884C68013A20
:10292000601C4860188A02F0FF02C0B22070012AC1
:1029300090B2488007D11A8892B222F4C06242F461
:1029400000721A8013E092B99A8822F4C0621204CD
:10295000120C9A800A4B9A8C043292B29A8741F6F2
:10296000F7621A829A8992B242F008029A81BDE80F
:1029700011408546704700BF00540040F80E00200B
:1029800000340140684620F007018D4601B51C4A1D
:102990000023918A82B089B28DF8073021F47063E8
:1029A0009BB29382138811F4306F9BB207D043F42B
:1029B000004111802022013AFDD1114A01E043F487
:1029C000007313800F4A0E49137843F0010313700C
:1029D0008B8823F4C0631B041B0C8B8090680DF163
:1029E000070100F032FA9DF8073023B1064A536818
:1029F00043F08053536002B0BDE801408546704704
:102A000000540040F80E002000ED00E038B50D4CF9
:102A10002568FFF7FBF8EA0704D56068FFF726F89A
:102A200000236360AB0704D5A068FFF71FF80023FD
:102A3000A36025F003052560FDF7D6FEBDE838400C
:102A4000FFF7EEB8FC04002070B5134D2C6814F0AD
:102A500001061FD1FFF7DAF8A30707D5A868FFF72B
:102A600005F8AE60FDF7C0FE24F002040B484FF4F9
:102A7000007100220223FEF753FF686010B90420A2
:102A800000F0DCF8044B44F001041C60BDE8704029
:102A9000FFF7C6B870BD00BFFC040020A12B0008E2
:102AA00010B5094C002209484FF40071022322603E
:102AB000FEF736FFE06010B9042000F0BFF823688D
:102AC00043F00403236010BDFC040020D92B000850
:102AD00070B5134D2C6814F002061FD1FFF796F85D
:102AE000E30707D56868FEF7C1FF6E60FDF77CFE5F
:102AF00024F001040B484FF4007100220223FEF77A
:102B00000FFFA86010B9042000F098F8044B44F0BF
:102B100002041C60BDE87040FFF782B870BD00BFC2
:102B2000FC040020692B000808B50A4B1B889BB2E7
:102B3000190709D59A0702D4FFF768FF06E05B077B
:102B400002D5FFF781FF01E0FFF7C2FF0020FEF78B
:102B5000CBFFEAE780050020024B186908B1FFF7B8
:102B600005B87047FC04002010B5FDF7FFFA72B6F7
:102B7000094C236801332360FDF736FE074B1A68C2
:102B800022F002021A6000229A602368013B23604F
:102B900003B962B610BD00BFC0000020FC040020D5
:102BA00010B5FDF7DDFA72B6094C236801332360D6
:102BB000FDF71AFE074B1A6822F001021A60002284
:102BC0005A602368013B236003B962B610BD00BFA1
:102BD000C0000020FC04002038B5FEF759FD00F5C8
:102BE000C065FDF7C2FA72B611490B6801330B607C
:102BF000104B1A681C4622F004021A600022DA60A8
:102C00000A68013A0A6002B962B6FEF741FDA842BD
:102C100002D2281AFFF770F8074840210022052346
:102C2000FEF77EFE206110B9042000F007F838BDE1
:102C3000C0000020FC040020292B000872B642F2DC
:102C40000C02164B9A81164A12F8013F3BB1134908
:102C50000C882406FBD55BB29BB28B80F4E704287A
:102C60000DD8104B53F8202012F8013B3BB10B4913
:102C700008880006FBD55BB29BB28B80F4E7074B5C
:102C80001B881B06FBD50849084BCA6802F4E062A2
:102C90001343CB60BFF34F8FFEE700BF0038014006
:102CA000703700084435000800ED00E00400FA0524
:102CB000684620F007018D46012008B5FFF7BEFFEA
:102CC000684620F007018D46002008B5FFF7B6FFE3
:102CD000684620F007018D46022008B5FFF7AEFFD9
:102CE000684620F007018D46094B01B51A6801328C
:102CF0001A6019681423B1FBF3F203FB12130BB92A
:102D0000FEF7ECF9FEF7B8FDBDE8014085467047D7
:102D10008405002010B50446FEF7BAFC0444FEF713
:102D2000B7FCA04202D230BF00BFF8E710BD30B5FB
:102D30000C46051F131B0B44032B04D954F8043B0A
:102D400045F8043FF6E722F00303194402F00302BA
:102D5000013B03440A44914204D011F8014B03F8AB
:102D6000014FF8E730BD000038B50D4C656AFEF73D
:102D7000E7F9FEF725F9FDF7F4F900F081F8C5F35E
:102D8000C060FFF79DFC636A43F080736362FEF7E7
:102D900079F9FFF785FEFEF719FF0420FFF74EFFD4
:102DA0000010024000F1080343604FF0FF32C3609F
:102DB0000361002382600360704700230361704752
:102DC00043685A688B604A605A689160596003682A
:102DD000416001330861036070470A6810B5531CF5
:102DE00001D1036907E000F108035C68246894429C
:102DF00001D85B68F9E75A684A6091608B60596056
:102E0000036808610133036010BD436882689A60FB
:102E10008268536003695968814208BF5A60002282
:102E200002611A68013A1A60704700210A460B468F
:102E300000F0B0B810B50120002100F07AF8044687
:102E400008B1FFF7F2FF204610BD0A4600210B46ED
:102E500000F076B90A4600210B4600F0FDB80000EC
:102E600007B5FEF715FC01904AF6AA22034B01A80C
:102E70001A607D21FEF71EFFF6E700BF003000401C
:102E80000C4B1B78A3B145F2555340F6C4110A4AC6
:102E90004CF6CC4013600223536091604AF6AA219D
:102EA000116010601160054840210022FEF738BD16
:102EB000704700BF1005002000300040612E000860
:102EC00038B5056C044635B90568F5B94068FEF7B4
:102ED0009FFF656019E05AB983682A461846FFF7D4
:102EE00026FF636805449D4228BF2568A5600CE065
:102EF000C3682A461846FFF71AFF6D422368284424
:102F000098423CBF60684019E060A36B0133A36343
:102F100038BD026C38B5054652B1C46843681444E4
:102F20009C4228BF046808462146FFF700FFEC607A
:102F300038BD2DE9F0410F46804608B9002425E050
:102F40004420FDF739FB04460028F7D007FB08F5BD
:102F5000681CFDF731FB0646A0B14319ED1B636009
:102F6000054400232060A060A36304F11000E56025
:102F7000C4F83C802764FFF715FF04F12400FFF735
:102F800011FF03E02046FDF707FB34462046BDE86D
:102F9000F08100002DE9F0470546894617469A461C
:102FA000FEF776FB804672B6294C2368264601332D
:102FB0002360AA6BEB6B9A4217D0284649465246CB
:102FC000FFF77EFF6B6A4BB105F12400FEF7D2FEDE
:102FD00020B1204A536843F0805353603368013B6B
:102FE0003360002B2DD162B62BE01FB32368013B69
:102FF000236003B962B672B6236801332360FEF71B
:1030000047FBC8EB0000B84214D2AA6BEB6B9A42A4
:1030100009D105F110003946FEF78EFE0D4A5368BE
:1030200043F0805353602368013B2360002BBAD1E7
:1030300062B6B8E730680138306028B962B6BDE8DA
:10304000F0870120BDE8F0870020BDE8F08700BFD1
:10305000C000002000ED00E02DE9F047044689465D
:1030600017469A46FEF714FB804672B6324D2B681F
:103070002E4601332B60A36B43B320464946E568D7
:10308000FFF747FFBAF1000F0CD1A36B013BA3631D
:10309000236813B9FEF792FE606023697BB104F1E7
:1030A000100004E0636AE5604BB104F12400FEF710
:1030B00061FE20B1214A536843F080535360336866
:1030C000013B3360002B30D162B62EE037B32B6862
:1030D000013B2B6003B962B672B62B6801332B60DB
:1030E000FEF7D6FAC8EB0000B84217D2A36B73B94B
:1030F000236813B96068FEF767FE04F124003946BF
:10310000FEF71AFE0D4A536843F0805353602B6854
:10311000013B2B60002BA8D162B6A6E730680138CE
:10312000306028B962B6BDE8F0870120BDE8F087BD
:103130000020BDE8F08700BFC000002000ED00E0E7
:10314000F8B50446174672B60F4DC26B2E680136AD
:103150002E60866B96420FD01A46FFF7B1FE636A67
:103160000BB9012009E004F12400FEF703FE00285A
:10317000F7D00120387000E000202B68013B2B6065
:1031800003B962B6F8BD00BFC000002000080140CE
:1031900000180140001801400010014000100140DB
:1031A00000180140001801400018014000180140BB
:1031B00000180140001801400014014000140140B3
:1031C00000080140000801400008014000080140DB
:1031D00000100140001001400010014000100140AB
:1031E0000014014000140140001001400010014093
:1031F000000C0140000C014004090B06070D0E08ED
:103200000A0C070001000102030203000105060A7F
:103210000B0809000102030C0D0A0B007F350008A2
:103220008235000885350008883500088B35000890
:103230008E35000891350008943500089735000850
:103240009A3500089D350008A0350008A335000810
:10325000A6350008A9350008AC350008AF350008D0
:10326000B2350008B5350008B8350008BB35000890
:10327000BE350008C1350008C4350008C735000850
:10328000CA350008CD350008D0350008D335000810
:10329000D6350008D9350008DC350008DF350008D0
:1032A000E2350008E5350008E8350008EB35000890
:1032B000EE350008F1350008F4350008F735000850
:1032C000FA350008FD35000800360008033600080E
:1032D00006360008093600080C3600080F360008CC
:1032E0001236000815360008183600081B3600088C
:1032F0001E3600082136000824360008273600084C
:103300002A3600082D36000830360008333600080B
:1033100036360008393600083C3600083F360008CB
:103320004236000845360008483600084B3600088B
:103330004E3600085136000854360008573600084B
:103340005A3600085D36000860360008633600080B
:1033500066360008693600086C3600086F360008CB
:103360007236000875360008783600087B3600088B
:103370007E3600088136000884360008873600084B
:103380008A3600088D36000890360008933600080B
:1033900096360008993600089C3600089F360008CB
:1033A000A2360008A5360008A83600080A0C01035A
:1033B00005060800000072007900800087008F0079
:1033C0009800A100AA00B400BF00CB00D700E30022
:1033D000F100FF000E011E012F014101540169019E
:1033E0007E019501AD01C601E101FE011C023C0216
:1033F0005E028202A902D102FC0229035A038D0354
:10340000C303FC0338047904BD0405055105A20576
:10341000F8055306B30619078507F7077008F10882
:103420007909090AA20A440BEF0BA50C650D310EB0
:10343000090FEE0FE010E111F21212144315871676
:10344000DE1749190000CB0095015E022503EB034E
:10345000AE046E052B06E40698074808F3089809A1
:10346000370AD00A610BEC0B6F0CEB0C5E0DC90D2B
:103470002C0E850ED60E1D0F5A0F8E0FB90FD90FB9
:10348000F00FFC0FFF0FF70FE60FCA0FA50F760F17
:103490003D0FFA0EAF0E5A0EFC0D950D260DAE0C1B
:1034A0002F0CA80B190B840AE80946099E08F1079E
:1034B0003F078806CD050E054D048803C202F901B9
:1034C000300165009BFFD0FE07FE3EFD78FCB3FB9C
:1034D000F2FA33FA78F9C1F80FF862F7BAF618F68B
:1034E0007CF5E7F458F4D1F352F3DAF26BF204F21C
:1034F000A6F151F106F1C3F08AF05BF036F01AF054
:1035000009F001F004F010F027F047F072F0A6F097
:10351000E3F02AF17BF1D4F137F2A2F215F391F343
:1035200014F49FF430F5C9F568F60DF7B8F768F8AC
:103530001CF9D5F992FA52FB15FCDBFCA2FD6BFEDF
:1035400035FF0000A6370008A6370008BA37000884
:10355000CF370008DF3700084D616465206F6E20AB
:10356000436C6F7564392028636F756E7465723DA6
:103570002564290D0A004E614E004E554C4C00301A
:10358000300030310030320030330030340030351C
:10359000003036003037003038003039003130002C
:1035A00031310031320031330031340031350031F6
:1035B00036003137003138003139003230003231D5
:1035C00000323200323300323400323500323600FD
:1035D00032370032380032390033300033310033B3
:1035E00032003333003334003335003336003337A1
:1035F00000333800333900343000343100343200C5
:103600003433003434003435003436003437003479
:10361000380034390035300035310035320035336B
:103620000035340035350035360035370035380083
:103630003539003630003631003632003633003648
:103640003400363500363600363700363800363925
:10365000003730003731003732003733003734005D
:1036600037350037360037370037380037390038FC
:103670003000383100383200383300383400383503
:103680000038360038370038380038390039300013
:1036900039310039320039330039340039350039D5
:1036A00036003937003938003939000D0A506F7744
:1036B000657265642062792050524F5320322E315A
:1036C000312E310D0A0D0A50524F53202843293212
:1036D0003031312D323031372050757264756520AC
:1036E00041434D20534947424F54530D0A005468FB
:1036F00069732070726F6772616D20686173204119
:1037000042534F4C5554454C59204E4F205741522F
:1037100052414E54592C206E6F74206576656E2090
:10372000616E20696D706C6965640D0A77617272F3
:10373000616E7479206F66204D45524348414E5466
:103740004142494C495459206F72204649544E45D4
:10375000535320464F522041205041525449435523
:103760004C415220505552504F53452E0D0A0D0AD0
:10377000000D0A5468652056455820436F727465E1
:1037800078206861732073746F7070656420776F40
:10379000726B696E67210D0A4572726F72206361E8
:1037A0007573653A20005365676D656E7461746961
:1037B0006F6E206661756C740A00496C6C65676198
:1037C0006C20696E737472756374696F6E0A00534E
:1037D0007461636B206F766572666C6F770A005355
:1037E000797374656D207461736B206661696C75A3
:0437F00072650A00F4
:0400000508000130BE
:00000001FF
